{
  "_format": "hh-sol-artifact-1",
  "contractName": "FileverseNFT",
  "sourceName": "contracts/FileverseNFT.sol",
  "abi": [
    {
      "inputs": [
        {
          "internalType": "string",
          "name": "_name",
          "type": "string"
        },
        {
          "internalType": "string",
          "name": "_symbol",
          "type": "string"
        }
      ],
      "stateMutability": "nonpayable",
      "type": "constructor"
    },
    {
      "anonymous": false,
      "inputs": [
        {
          "indexed": true,
          "internalType": "address",
          "name": "owner",
          "type": "address"
        },
        {
          "indexed": true,
          "internalType": "address",
          "name": "approved",
          "type": "address"
        },
        {
          "indexed": true,
          "internalType": "uint256",
          "name": "tokenId",
          "type": "uint256"
        }
      ],
      "name": "Approval",
      "type": "event"
    },
    {
      "anonymous": false,
      "inputs": [
        {
          "indexed": true,
          "internalType": "address",
          "name": "owner",
          "type": "address"
        },
        {
          "indexed": true,
          "internalType": "address",
          "name": "operator",
          "type": "address"
        },
        {
          "indexed": false,
          "internalType": "bool",
          "name": "approved",
          "type": "bool"
        }
      ],
      "name": "ApprovalForAll",
      "type": "event"
    },
    {
      "anonymous": false,
      "inputs": [
        {
          "indexed": true,
          "internalType": "address",
          "name": "previousOwner",
          "type": "address"
        },
        {
          "indexed": true,
          "internalType": "address",
          "name": "newOwner",
          "type": "address"
        }
      ],
      "name": "OwnershipTransferred",
      "type": "event"
    },
    {
      "anonymous": false,
      "inputs": [
        {
          "indexed": false,
          "internalType": "address",
          "name": "account",
          "type": "address"
        }
      ],
      "name": "Paused",
      "type": "event"
    },
    {
      "anonymous": false,
      "inputs": [
        {
          "indexed": true,
          "internalType": "address",
          "name": "from",
          "type": "address"
        },
        {
          "indexed": true,
          "internalType": "address",
          "name": "to",
          "type": "address"
        },
        {
          "indexed": true,
          "internalType": "uint256",
          "name": "tokenId",
          "type": "uint256"
        }
      ],
      "name": "Transfer",
      "type": "event"
    },
    {
      "anonymous": false,
      "inputs": [
        {
          "indexed": false,
          "internalType": "address",
          "name": "account",
          "type": "address"
        }
      ],
      "name": "Unpaused",
      "type": "event"
    },
    {
      "inputs": [
        {
          "internalType": "address",
          "name": "to",
          "type": "address"
        },
        {
          "internalType": "uint256",
          "name": "tokenId",
          "type": "uint256"
        }
      ],
      "name": "approve",
      "outputs": [],
      "stateMutability": "nonpayable",
      "type": "function"
    },
    {
      "inputs": [
        {
          "internalType": "address",
          "name": "owner",
          "type": "address"
        }
      ],
      "name": "balanceOf",
      "outputs": [
        {
          "internalType": "uint256",
          "name": "",
          "type": "uint256"
        }
      ],
      "stateMutability": "view",
      "type": "function"
    },
    {
      "inputs": [
        {
          "internalType": "address[]",
          "name": "_to",
          "type": "address[]"
        }
      ],
      "name": "batchMint",
      "outputs": [
        {
          "internalType": "bool",
          "name": "_success",
          "type": "bool"
        }
      ],
      "stateMutability": "nonpayable",
      "type": "function"
    },
    {
      "inputs": [
        {
          "internalType": "uint256",
          "name": "tokenId",
          "type": "uint256"
        }
      ],
      "name": "getApproved",
      "outputs": [
        {
          "internalType": "address",
          "name": "",
          "type": "address"
        }
      ],
      "stateMutability": "view",
      "type": "function"
    },
    {
      "inputs": [
        {
          "internalType": "address",
          "name": "owner",
          "type": "address"
        },
        {
          "internalType": "address",
          "name": "operator",
          "type": "address"
        }
      ],
      "name": "isApprovedForAll",
      "outputs": [
        {
          "internalType": "bool",
          "name": "",
          "type": "bool"
        }
      ],
      "stateMutability": "view",
      "type": "function"
    },
    {
      "inputs": [
        {
          "internalType": "address",
          "name": "_to",
          "type": "address"
        }
      ],
      "name": "mintTo",
      "outputs": [],
      "stateMutability": "nonpayable",
      "type": "function"
    },
    {
      "inputs": [],
      "name": "name",
      "outputs": [
        {
          "internalType": "string",
          "name": "",
          "type": "string"
        }
      ],
      "stateMutability": "view",
      "type": "function"
    },
    {
      "inputs": [],
      "name": "owner",
      "outputs": [
        {
          "internalType": "address",
          "name": "",
          "type": "address"
        }
      ],
      "stateMutability": "view",
      "type": "function"
    },
    {
      "inputs": [
        {
          "internalType": "uint256",
          "name": "tokenId",
          "type": "uint256"
        }
      ],
      "name": "ownerOf",
      "outputs": [
        {
          "internalType": "address",
          "name": "",
          "type": "address"
        }
      ],
      "stateMutability": "view",
      "type": "function"
    },
    {
      "inputs": [],
      "name": "paused",
      "outputs": [
        {
          "internalType": "bool",
          "name": "",
          "type": "bool"
        }
      ],
      "stateMutability": "view",
      "type": "function"
    },
    {
      "inputs": [],
      "name": "renounceOwnership",
      "outputs": [],
      "stateMutability": "nonpayable",
      "type": "function"
    },
    {
      "inputs": [
        {
          "internalType": "address",
          "name": "from",
          "type": "address"
        },
        {
          "internalType": "address",
          "name": "to",
          "type": "address"
        },
        {
          "internalType": "uint256",
          "name": "tokenId",
          "type": "uint256"
        }
      ],
      "name": "safeTransferFrom",
      "outputs": [],
      "stateMutability": "nonpayable",
      "type": "function"
    },
    {
      "inputs": [
        {
          "internalType": "address",
          "name": "from",
          "type": "address"
        },
        {
          "internalType": "address",
          "name": "to",
          "type": "address"
        },
        {
          "internalType": "uint256",
          "name": "tokenId",
          "type": "uint256"
        },
        {
          "internalType": "bytes",
          "name": "_data",
          "type": "bytes"
        }
      ],
      "name": "safeTransferFrom",
      "outputs": [],
      "stateMutability": "nonpayable",
      "type": "function"
    },
    {
      "inputs": [
        {
          "internalType": "address",
          "name": "operator",
          "type": "address"
        },
        {
          "internalType": "bool",
          "name": "approved",
          "type": "bool"
        }
      ],
      "name": "setApprovalForAll",
      "outputs": [],
      "stateMutability": "nonpayable",
      "type": "function"
    },
    {
      "inputs": [
        {
          "internalType": "bytes4",
          "name": "interfaceId",
          "type": "bytes4"
        }
      ],
      "name": "supportsInterface",
      "outputs": [
        {
          "internalType": "bool",
          "name": "",
          "type": "bool"
        }
      ],
      "stateMutability": "view",
      "type": "function"
    },
    {
      "inputs": [],
      "name": "symbol",
      "outputs": [
        {
          "internalType": "string",
          "name": "",
          "type": "string"
        }
      ],
      "stateMutability": "view",
      "type": "function"
    },
    {
      "inputs": [
        {
          "internalType": "uint256",
          "name": "index",
          "type": "uint256"
        }
      ],
      "name": "tokenByIndex",
      "outputs": [
        {
          "internalType": "uint256",
          "name": "",
          "type": "uint256"
        }
      ],
      "stateMutability": "view",
      "type": "function"
    },
    {
      "inputs": [
        {
          "internalType": "address",
          "name": "owner",
          "type": "address"
        },
        {
          "internalType": "uint256",
          "name": "index",
          "type": "uint256"
        }
      ],
      "name": "tokenOfOwnerByIndex",
      "outputs": [
        {
          "internalType": "uint256",
          "name": "",
          "type": "uint256"
        }
      ],
      "stateMutability": "view",
      "type": "function"
    },
    {
      "inputs": [
        {
          "internalType": "uint256",
          "name": "tokenId",
          "type": "uint256"
        }
      ],
      "name": "tokenURI",
      "outputs": [
        {
          "internalType": "string",
          "name": "",
          "type": "string"
        }
      ],
      "stateMutability": "view",
      "type": "function"
    },
    {
      "inputs": [],
      "name": "totalSupply",
      "outputs": [
        {
          "internalType": "uint256",
          "name": "",
          "type": "uint256"
        }
      ],
      "stateMutability": "view",
      "type": "function"
    },
    {
      "inputs": [
        {
          "internalType": "address",
          "name": "from",
          "type": "address"
        },
        {
          "internalType": "address",
          "name": "to",
          "type": "address"
        },
        {
          "internalType": "uint256",
          "name": "tokenId",
          "type": "uint256"
        }
      ],
      "name": "transferFrom",
      "outputs": [],
      "stateMutability": "nonpayable",
      "type": "function"
    },
    {
      "inputs": [
        {
          "internalType": "address",
          "name": "newOwner",
          "type": "address"
        }
      ],
      "name": "transferOwnership",
      "outputs": [],
      "stateMutability": "nonpayable",
      "type": "function"
    }
  ],
  "bytecode": "0x60806040526000600b553480156200001657600080fd5b506040516200373c3803806200373c83398181016040528101906200003c9190620002a5565b818181600090805190602001906200005692919062000183565b5080600190805190602001906200006f92919062000183565b5050506200009262000086620000b560201b60201c565b620000bd60201b60201c565b6000600660146101000a81548160ff021916908315150217905550505062000488565b600033905090565b6000600660009054906101000a900473ffffffffffffffffffffffffffffffffffffffff16905081600660006101000a81548173ffffffffffffffffffffffffffffffffffffffff021916908373ffffffffffffffffffffffffffffffffffffffff1602179055508173ffffffffffffffffffffffffffffffffffffffff168173ffffffffffffffffffffffffffffffffffffffff167f8be0079c531659141344cd1fd0a4f28419497f9722a3daafe3b4186f6b6457e060405160405180910390a35050565b8280546200019190620003ad565b90600052602060002090601f016020900481019282620001b5576000855562000201565b82601f10620001d057805160ff191683800117855562000201565b8280016001018555821562000201579182015b8281111562000200578251825591602001919060010190620001e3565b5b50905062000210919062000214565b5090565b5b808211156200022f57600081600090555060010162000215565b5090565b60006200024a620002448462000341565b62000318565b9050828152602081018484840111156200026357600080fd5b6200027084828562000377565b509392505050565b600082601f8301126200028a57600080fd5b81516200029c84826020860162000233565b91505092915050565b60008060408385031215620002b957600080fd5b600083015167ffffffffffffffff811115620002d457600080fd5b620002e28582860162000278565b925050602083015167ffffffffffffffff8111156200030057600080fd5b6200030e8582860162000278565b9150509250929050565b60006200032462000337565b9050620003328282620003e3565b919050565b6000604051905090565b600067ffffffffffffffff8211156200035f576200035e62000448565b5b6200036a8262000477565b9050602081019050919050565b60005b83811015620003975780820151818401526020810190506200037a565b83811115620003a7576000848401525b50505050565b60006002820490506001821680620003c657607f821691505b60208210811415620003dd57620003dc62000419565b5b50919050565b620003ee8262000477565b810181811067ffffffffffffffff8211171562000410576200040f62000448565b5b80604052505050565b7f4e487b7100000000000000000000000000000000000000000000000000000000600052602260045260246000fd5b7f4e487b7100000000000000000000000000000000000000000000000000000000600052604160045260246000fd5b6000601f19601f8301169050919050565b6132a480620004986000396000f3fe608060405234801561001057600080fd5b50600436106101425760003560e01c806370a08231116100b8578063a22cb4651161007c578063a22cb46514610377578063b88d4fde14610393578063c87b56dd146103af578063d67b06c1146103df578063e985e9c51461040f578063f2fde38b1461043f57610142565b806370a08231146102e5578063715018a614610315578063755edd171461031f5780638da5cb5b1461033b57806395d89b411461035957610142565b806323b872dd1161010a57806323b872dd146101ff5780632f745c591461021b57806342842e0e1461024b5780634f6ccce7146102675780635c975abb146102975780636352211e146102b557610142565b806301ffc9a71461014757806306fdde0314610177578063081812fc14610195578063095ea7b3146101c557806318160ddd146101e1575b600080fd5b610161600480360381019061015c919061218f565b61045b565b60405161016e91906125fe565b60405180910390f35b61017f61046d565b60405161018c9190612619565b60405180910390f35b6101af60048036038101906101aa91906121e1565b6104ff565b6040516101bc9190612597565b60405180910390f35b6101df60048036038101906101da9190612112565b610584565b005b6101e961069c565b6040516101f6919061289b565b60405180910390f35b6102196004803603810190610214919061200c565b6106a9565b005b61023560048036038101906102309190612112565b610709565b604051610242919061289b565b60405180910390f35b6102656004803603810190610260919061200c565b6107ae565b005b610281600480360381019061027c91906121e1565b6107ce565b60405161028e919061289b565b60405180910390f35b61029f610865565b6040516102ac91906125fe565b60405180910390f35b6102cf60048036038101906102ca91906121e1565b61087c565b6040516102dc9190612597565b60405180910390f35b6102ff60048036038101906102fa9190611fa7565b61092e565b60405161030c919061289b565b60405180910390f35b61031d6109e6565b005b61033960048036038101906103349190611fa7565b610a6e565b005b610343610b0c565b6040516103509190612597565b60405180910390f35b610361610b36565b60405161036e9190612619565b60405180910390f35b610391600480360381019061038c91906120d6565b610bc8565b005b6103ad60048036038101906103a8919061205b565b610bde565b005b6103c960048036038101906103c491906121e1565b610c40565b6040516103d69190612619565b60405180910390f35b6103f960048036038101906103f4919061214e565b610ce7565b60405161040691906125fe565b60405180910390f35b61042960048036038101906104249190611fd0565b610df3565b60405161043691906125fe565b60405180910390f35b61045960048036038101906104549190611fa7565b610e87565b005b600061046682610f7f565b9050919050565b60606000805461047c90612af9565b80601f01602080910402602001604051908101604052809291908181526020018280546104a890612af9565b80156104f55780601f106104ca576101008083540402835291602001916104f5565b820191906000526020600020905b8154815290600101906020018083116104d857829003601f168201915b5050505050905090565b600061050a82610ff9565b610549576040517f08c379a0000000000000000000000000000000000000000000000000000000008152600401610540906127db565b60405180910390fd5b6004600083815260200190815260200160002060009054906101000a900473ffffffffffffffffffffffffffffffffffffffff169050919050565b600061058f8261087c565b90508073ffffffffffffffffffffffffffffffffffffffff168373ffffffffffffffffffffffffffffffffffffffff161415610600576040517f08c379a00000000000000000000000000000000000000000000000000000000081526004016105f79061283b565b60405180910390fd5b8073ffffffffffffffffffffffffffffffffffffffff1661061f611065565b73ffffffffffffffffffffffffffffffffffffffff16148061064e575061064d81610648611065565b610df3565b5b61068d576040517f08c379a00000000000000000000000000000000000000000000000000000000081526004016106849061275b565b60405180910390fd5b610697838361106d565b505050565b6000600980549050905090565b6106ba6106b4611065565b82611126565b6106f9576040517f08c379a00000000000000000000000000000000000000000000000000000000081526004016106f09061285b565b60405180910390fd5b610704838383611204565b505050565b60006107148361092e565b8210610755576040517f08c379a000000000000000000000000000000000000000000000000000000000815260040161074c9061265b565b60405180910390fd5b600760008473ffffffffffffffffffffffffffffffffffffffff1673ffffffffffffffffffffffffffffffffffffffff168152602001908152602001600020600083815260200190815260200160002054905092915050565b6107c983838360405180602001604052806000815250610bde565b505050565b60006107d861069c565b8210610819576040517f08c379a00000000000000000000000000000000000000000000000000000000081526004016108109061287b565b60405180910390fd5b60098281548110610853577f4e487b7100000000000000000000000000000000000000000000000000000000600052603260045260246000fd5b90600052602060002001549050919050565b6000600660149054906101000a900460ff16905090565b6000806002600084815260200190815260200160002060009054906101000a900473ffffffffffffffffffffffffffffffffffffffff169050600073ffffffffffffffffffffffffffffffffffffffff168173ffffffffffffffffffffffffffffffffffffffff161415610925576040517f08c379a000000000000000000000000000000000000000000000000000000000815260040161091c9061279b565b60405180910390fd5b80915050919050565b60008073ffffffffffffffffffffffffffffffffffffffff168273ffffffffffffffffffffffffffffffffffffffff16141561099f576040517f08c379a00000000000000000000000000000000000000000000000000000000081526004016109969061277b565b60405180910390fd5b600360008373ffffffffffffffffffffffffffffffffffffffff1673ffffffffffffffffffffffffffffffffffffffff168152602001908152602001600020549050919050565b6109ee611065565b73ffffffffffffffffffffffffffffffffffffffff16610a0c610b0c565b73ffffffffffffffffffffffffffffffffffffffff1614610a62576040517f08c379a0000000000000000000000000000000000000000000000000000000008152600401610a59906127fb565b60405180910390fd5b610a6c600061146b565b565b610a76611065565b73ffffffffffffffffffffffffffffffffffffffff16610a94610b0c565b73ffffffffffffffffffffffffffffffffffffffff1614610aea576040517f08c379a0000000000000000000000000000000000000000000000000000000008152600401610ae1906127fb565b60405180910390fd5b6000610af4611531565b9050610b008282611547565b610b08611721565b5050565b6000600660009054906101000a900473ffffffffffffffffffffffffffffffffffffffff16905090565b606060018054610b4590612af9565b80601f0160208091040260200160405190810160405280929190818152602001828054610b7190612af9565b8015610bbe5780601f10610b9357610100808354040283529160200191610bbe565b820191906000526020600020905b815481529060010190602001808311610ba157829003601f168201915b5050505050905090565b610bda610bd3611065565b838361173b565b5050565b610bef610be9611065565b83611126565b610c2e576040517f08c379a0000000000000000000000000000000000000000000000000000000008152600401610c259061285b565b60405180910390fd5b610c3a848484846118a8565b50505050565b6060610c4b82610ff9565b610c8a576040517f08c379a0000000000000000000000000000000000000000000000000000000008152600401610c819061281b565b60405180910390fd5b6000610c94611904565b90506000815111610cb45760405180602001604052806000815250610cdf565b80610cbe8461191b565b604051602001610ccf929190612573565b6040516020818303038152906040525b915050919050565b6000610cf1611065565b73ffffffffffffffffffffffffffffffffffffffff16610d0f610b0c565b73ffffffffffffffffffffffffffffffffffffffff1614610d65576040517f08c379a0000000000000000000000000000000000000000000000000000000008152600401610d5c906127fb565b60405180910390fd5b60005b82518160ff161015610de9576000610d7e611531565b9050610dcd848360ff1681518110610dbf577f4e487b7100000000000000000000000000000000000000000000000000000000600052603260045260246000fd5b602002602001015182611547565b610dd5611721565b508080610de190612ba5565b915050610d68565b5060019050919050565b6000600560008473ffffffffffffffffffffffffffffffffffffffff1673ffffffffffffffffffffffffffffffffffffffff16815260200190815260200160002060008373ffffffffffffffffffffffffffffffffffffffff1673ffffffffffffffffffffffffffffffffffffffff16815260200190815260200160002060009054906101000a900460ff16905092915050565b610e8f611065565b73ffffffffffffffffffffffffffffffffffffffff16610ead610b0c565b73ffffffffffffffffffffffffffffffffffffffff1614610f03576040517f08c379a0000000000000000000000000000000000000000000000000000000008152600401610efa906127fb565b60405180910390fd5b600073ffffffffffffffffffffffffffffffffffffffff168173ffffffffffffffffffffffffffffffffffffffff161415610f73576040517f08c379a0000000000000000000000000000000000000000000000000000000008152600401610f6a9061269b565b60405180910390fd5b610f7c8161146b565b50565b60007f780e9d63000000000000000000000000000000000000000000000000000000007bffffffffffffffffffffffffffffffffffffffffffffffffffffffff1916827bffffffffffffffffffffffffffffffffffffffffffffffffffffffff19161480610ff25750610ff182611ac8565b5b9050919050565b60008073ffffffffffffffffffffffffffffffffffffffff166002600084815260200190815260200160002060009054906101000a900473ffffffffffffffffffffffffffffffffffffffff1673ffffffffffffffffffffffffffffffffffffffff1614159050919050565b600033905090565b816004600083815260200190815260200160002060006101000a81548173ffffffffffffffffffffffffffffffffffffffff021916908373ffffffffffffffffffffffffffffffffffffffff160217905550808273ffffffffffffffffffffffffffffffffffffffff166110e08361087c565b73ffffffffffffffffffffffffffffffffffffffff167f8c5be1e5ebec7d5bd14f71427d1e84f3dd0314c0f7b2291e5b200ac8c7c3b92560405160405180910390a45050565b600061113182610ff9565b611170576040517f08c379a00000000000000000000000000000000000000000000000000000000081526004016111679061273b565b60405180910390fd5b600061117b8361087c565b90508073ffffffffffffffffffffffffffffffffffffffff168473ffffffffffffffffffffffffffffffffffffffff1614806111ea57508373ffffffffffffffffffffffffffffffffffffffff166111d2846104ff565b73ffffffffffffffffffffffffffffffffffffffff16145b806111fb57506111fa8185610df3565b5b91505092915050565b8273ffffffffffffffffffffffffffffffffffffffff166112248261087c565b73ffffffffffffffffffffffffffffffffffffffff161461127a576040517f08c379a0000000000000000000000000000000000000000000000000000000008152600401611271906126bb565b60405180910390fd5b600073ffffffffffffffffffffffffffffffffffffffff168273ffffffffffffffffffffffffffffffffffffffff1614156112ea576040517f08c379a00000000000000000000000000000000000000000000000000000000081526004016112e1906126fb565b60405180910390fd5b6112f5838383611baa565b61130060008261106d565b6001600360008573ffffffffffffffffffffffffffffffffffffffff1673ffffffffffffffffffffffffffffffffffffffff16815260200190815260200160002060008282546113509190612a02565b925050819055506001600360008473ffffffffffffffffffffffffffffffffffffffff1673ffffffffffffffffffffffffffffffffffffffff16815260200190815260200160002060008282546113a7919061297b565b92505081905550816002600083815260200190815260200160002060006101000a81548173ffffffffffffffffffffffffffffffffffffffff021916908373ffffffffffffffffffffffffffffffffffffffff160217905550808273ffffffffffffffffffffffffffffffffffffffff168473ffffffffffffffffffffffffffffffffffffffff167fddf252ad1be2c89b69c2b068fc378daa952ba7f163c4a11628f55a4df523b3ef60405160405180910390a4611466838383611bba565b505050565b6000600660009054906101000a900473ffffffffffffffffffffffffffffffffffffffff16905081600660006101000a81548173ffffffffffffffffffffffffffffffffffffffff021916908373ffffffffffffffffffffffffffffffffffffffff1602179055508173ffffffffffffffffffffffffffffffffffffffff168173ffffffffffffffffffffffffffffffffffffffff167f8be0079c531659141344cd1fd0a4f28419497f9722a3daafe3b4186f6b6457e060405160405180910390a35050565b60006001600b54611542919061297b565b905090565b600073ffffffffffffffffffffffffffffffffffffffff168273ffffffffffffffffffffffffffffffffffffffff1614156115b7576040517f08c379a00000000000000000000000000000000000000000000000000000000081526004016115ae906127bb565b60405180910390fd5b6115c081610ff9565b15611600576040517f08c379a00000000000000000000000000000000000000000000000000000000081526004016115f7906126db565b60405180910390fd5b61160c60008383611baa565b6001600360008473ffffffffffffffffffffffffffffffffffffffff1673ffffffffffffffffffffffffffffffffffffffff168152602001908152602001600020600082825461165c919061297b565b92505081905550816002600083815260200190815260200160002060006101000a81548173ffffffffffffffffffffffffffffffffffffffff021916908373ffffffffffffffffffffffffffffffffffffffff160217905550808273ffffffffffffffffffffffffffffffffffffffff16600073ffffffffffffffffffffffffffffffffffffffff167fddf252ad1be2c89b69c2b068fc378daa952ba7f163c4a11628f55a4df523b3ef60405160405180910390a461171d60008383611bba565b5050565b600b600081548092919061173490612b5c565b9190505550565b8173ffffffffffffffffffffffffffffffffffffffff168373ffffffffffffffffffffffffffffffffffffffff1614156117aa576040517f08c379a00000000000000000000000000000000000000000000000000000000081526004016117a19061271b565b60405180910390fd5b80600560008573ffffffffffffffffffffffffffffffffffffffff1673ffffffffffffffffffffffffffffffffffffffff16815260200190815260200160002060008473ffffffffffffffffffffffffffffffffffffffff1673ffffffffffffffffffffffffffffffffffffffff16815260200190815260200160002060006101000a81548160ff0219169083151502179055508173ffffffffffffffffffffffffffffffffffffffff168373ffffffffffffffffffffffffffffffffffffffff167f17307eab39ab6107e8899845ad3d59bd9653f200f220920489ca2b5937696c318360405161189b91906125fe565b60405180910390a3505050565b6118b3848484611204565b6118bf84848484611bbf565b6118fe576040517f08c379a00000000000000000000000000000000000000000000000000000000081526004016118f59061267b565b60405180910390fd5b50505050565b606060405180602001604052806000815250905090565b60606000821415611963576040518060400160405280600181526020017f30000000000000000000000000000000000000000000000000000000000000008152509050611ac3565b600082905060005b6000821461199557808061197e90612b5c565b915050600a8261198e91906129d1565b915061196b565b60008167ffffffffffffffff8111156119d7577f4e487b7100000000000000000000000000000000000000000000000000000000600052604160045260246000fd5b6040519080825280601f01601f191660200182016040528015611a095781602001600182028036833780820191505090505b5090505b60008514611abc57600182611a229190612a02565b9150600a85611a319190612bcf565b6030611a3d919061297b565b60f81b818381518110611a79577f4e487b7100000000000000000000000000000000000000000000000000000000600052603260045260246000fd5b60200101907effffffffffffffffffffffffffffffffffffffffffffffffffffffffffffff1916908160001a905350600a85611ab591906129d1565b9450611a0d565b8093505050505b919050565b60007f80ac58cd000000000000000000000000000000000000000000000000000000007bffffffffffffffffffffffffffffffffffffffffffffffffffffffff1916827bffffffffffffffffffffffffffffffffffffffffffffffffffffffff19161480611b9357507f5b5e139f000000000000000000000000000000000000000000000000000000007bffffffffffffffffffffffffffffffffffffffffffffffffffffffff1916827bffffffffffffffffffffffffffffffffffffffffffffffffffffffff1916145b80611ba35750611ba282611d56565b5b9050919050565b611bb5838383611dc0565b505050565b505050565b6000611be08473ffffffffffffffffffffffffffffffffffffffff16611e18565b15611d49578373ffffffffffffffffffffffffffffffffffffffff1663150b7a02611c09611065565b8786866040518563ffffffff1660e01b8152600401611c2b94939291906125b2565b602060405180830381600087803b158015611c4557600080fd5b505af1925050508015611c7657506040513d601f19601f82011682018060405250810190611c7391906121b8565b60015b611cf9573d8060008114611ca6576040519150601f19603f3d011682016040523d82523d6000602084013e611cab565b606091505b50600081511415611cf1576040517f08c379a0000000000000000000000000000000000000000000000000000000008152600401611ce89061267b565b60405180910390fd5b805181602001fd5b63150b7a0260e01b7bffffffffffffffffffffffffffffffffffffffffffffffffffffffff1916817bffffffffffffffffffffffffffffffffffffffffffffffffffffffff191614915050611d4e565b600190505b949350505050565b60007f01ffc9a7000000000000000000000000000000000000000000000000000000007bffffffffffffffffffffffffffffffffffffffffffffffffffffffff1916827bffffffffffffffffffffffffffffffffffffffffffffffffffffffff1916149050919050565b611dcb838383611e3b565b611dd3610865565b15611e13576040517f08c379a0000000000000000000000000000000000000000000000000000000008152600401611e0a9061263b565b60405180910390fd5b505050565b6000808273ffffffffffffffffffffffffffffffffffffffff163b119050919050565b505050565b6000611e53611e4e846128db565b6128b6565b90508083825260208201905082856020860282011115611e7257600080fd5b60005b85811015611ea25781611e888882611eea565b845260208401935060208301925050600181019050611e75565b5050509392505050565b6000611ebf611eba84612907565b6128b6565b905082815260208101848484011115611ed757600080fd5b611ee2848285612ab7565b509392505050565b600081359050611ef981613212565b92915050565b600082601f830112611f1057600080fd5b8135611f20848260208601611e40565b91505092915050565b600081359050611f3881613229565b92915050565b600081359050611f4d81613240565b92915050565b600081519050611f6281613240565b92915050565b600082601f830112611f7957600080fd5b8135611f89848260208601611eac565b91505092915050565b600081359050611fa181613257565b92915050565b600060208284031215611fb957600080fd5b6000611fc784828501611eea565b91505092915050565b60008060408385031215611fe357600080fd5b6000611ff185828601611eea565b925050602061200285828601611eea565b9150509250929050565b60008060006060848603121561202157600080fd5b600061202f86828701611eea565b935050602061204086828701611eea565b925050604061205186828701611f92565b9150509250925092565b6000806000806080858703121561207157600080fd5b600061207f87828801611eea565b945050602061209087828801611eea565b93505060406120a187828801611f92565b925050606085013567ffffffffffffffff8111156120be57600080fd5b6120ca87828801611f68565b91505092959194509250565b600080604083850312156120e957600080fd5b60006120f785828601611eea565b925050602061210885828601611f29565b9150509250929050565b6000806040838503121561212557600080fd5b600061213385828601611eea565b925050602061214485828601611f92565b9150509250929050565b60006020828403121561216057600080fd5b600082013567ffffffffffffffff81111561217a57600080fd5b61218684828501611eff565b91505092915050565b6000602082840312156121a157600080fd5b60006121af84828501611f3e565b91505092915050565b6000602082840312156121ca57600080fd5b60006121d884828501611f53565b91505092915050565b6000602082840312156121f357600080fd5b600061220184828501611f92565b91505092915050565b61221381612a36565b82525050565b61222281612a48565b82525050565b600061223382612938565b61223d818561294e565b935061224d818560208601612ac6565b61225681612cbc565b840191505092915050565b600061226c82612943565b612276818561295f565b9350612286818560208601612ac6565b61228f81612cbc565b840191505092915050565b60006122a582612943565b6122af8185612970565b93506122bf818560208601612ac6565b80840191505092915050565b60006122d8602b8361295f565b91506122e382612ccd565b604082019050919050565b60006122fb602b8361295f565b915061230682612d1c565b604082019050919050565b600061231e60328361295f565b915061232982612d6b565b604082019050919050565b600061234160268361295f565b915061234c82612dba565b604082019050919050565b600061236460258361295f565b915061236f82612e09565b604082019050919050565b6000612387601c8361295f565b915061239282612e58565b602082019050919050565b60006123aa60248361295f565b91506123b582612e81565b604082019050919050565b60006123cd60198361295f565b91506123d882612ed0565b602082019050919050565b60006123f0602c8361295f565b91506123fb82612ef9565b604082019050919050565b600061241360388361295f565b915061241e82612f48565b604082019050919050565b6000612436602a8361295f565b915061244182612f97565b604082019050919050565b600061245960298361295f565b915061246482612fe6565b604082019050919050565b600061247c60208361295f565b915061248782613035565b602082019050919050565b600061249f602c8361295f565b91506124aa8261305e565b604082019050919050565b60006124c260208361295f565b91506124cd826130ad565b602082019050919050565b60006124e5602f8361295f565b91506124f0826130d6565b604082019050919050565b600061250860218361295f565b915061251382613125565b604082019050919050565b600061252b60318361295f565b915061253682613174565b604082019050919050565b600061254e602c8361295f565b9150612559826131c3565b604082019050919050565b61256d81612aa0565b82525050565b600061257f828561229a565b915061258b828461229a565b91508190509392505050565b60006020820190506125ac600083018461220a565b92915050565b60006080820190506125c7600083018761220a565b6125d4602083018661220a565b6125e16040830185612564565b81810360608301526125f38184612228565b905095945050505050565b60006020820190506126136000830184612219565b92915050565b600060208201905081810360008301526126338184612261565b905092915050565b60006020820190508181036000830152612654816122cb565b9050919050565b60006020820190508181036000830152612674816122ee565b9050919050565b6000602082019050818103600083015261269481612311565b9050919050565b600060208201905081810360008301526126b481612334565b9050919050565b600060208201905081810360008301526126d481612357565b9050919050565b600060208201905081810360008301526126f48161237a565b9050919050565b600060208201905081810360008301526127148161239d565b9050919050565b60006020820190508181036000830152612734816123c0565b9050919050565b60006020820190508181036000830152612754816123e3565b9050919050565b6000602082019050818103600083015261277481612406565b9050919050565b6000602082019050818103600083015261279481612429565b9050919050565b600060208201905081810360008301526127b48161244c565b9050919050565b600060208201905081810360008301526127d48161246f565b9050919050565b600060208201905081810360008301526127f481612492565b9050919050565b60006020820190508181036000830152612814816124b5565b9050919050565b60006020820190508181036000830152612834816124d8565b9050919050565b60006020820190508181036000830152612854816124fb565b9050919050565b600060208201905081810360008301526128748161251e565b9050919050565b6000602082019050818103600083015261289481612541565b9050919050565b60006020820190506128b06000830184612564565b92915050565b60006128c06128d1565b90506128cc8282612b2b565b919050565b6000604051905090565b600067ffffffffffffffff8211156128f6576128f5612c8d565b5b602082029050602081019050919050565b600067ffffffffffffffff82111561292257612921612c8d565b5b61292b82612cbc565b9050602081019050919050565b600081519050919050565b600081519050919050565b600082825260208201905092915050565b600082825260208201905092915050565b600081905092915050565b600061298682612aa0565b915061299183612aa0565b9250827fffffffffffffffffffffffffffffffffffffffffffffffffffffffffffffffff038211156129c6576129c5612c00565b5b828201905092915050565b60006129dc82612aa0565b91506129e783612aa0565b9250826129f7576129f6612c2f565b5b828204905092915050565b6000612a0d82612aa0565b9150612a1883612aa0565b925082821015612a2b57612a2a612c00565b5b828203905092915050565b6000612a4182612a80565b9050919050565b60008115159050919050565b60007fffffffff0000000000000000000000000000000000000000000000000000000082169050919050565b600073ffffffffffffffffffffffffffffffffffffffff82169050919050565b6000819050919050565b600060ff82169050919050565b82818337600083830152505050565b60005b83811015612ae4578082015181840152602081019050612ac9565b83811115612af3576000848401525b50505050565b60006002820490506001821680612b1157607f821691505b60208210811415612b2557612b24612c5e565b5b50919050565b612b3482612cbc565b810181811067ffffffffffffffff82111715612b5357612b52612c8d565b5b80604052505050565b6000612b6782612aa0565b91507fffffffffffffffffffffffffffffffffffffffffffffffffffffffffffffffff821415612b9a57612b99612c00565b5b600182019050919050565b6000612bb082612aaa565b915060ff821415612bc457612bc3612c00565b5b600182019050919050565b6000612bda82612aa0565b9150612be583612aa0565b925082612bf557612bf4612c2f565b5b828206905092915050565b7f4e487b7100000000000000000000000000000000000000000000000000000000600052601160045260246000fd5b7f4e487b7100000000000000000000000000000000000000000000000000000000600052601260045260246000fd5b7f4e487b7100000000000000000000000000000000000000000000000000000000600052602260045260246000fd5b7f4e487b7100000000000000000000000000000000000000000000000000000000600052604160045260246000fd5b6000601f19601f8301169050919050565b7f4552433732315061757361626c653a20746f6b656e207472616e73666572207760008201527f68696c6520706175736564000000000000000000000000000000000000000000602082015250565b7f455243373231456e756d657261626c653a206f776e657220696e646578206f7560008201527f74206f6620626f756e6473000000000000000000000000000000000000000000602082015250565b7f4552433732313a207472616e7366657220746f206e6f6e20455243373231526560008201527f63656976657220696d706c656d656e7465720000000000000000000000000000602082015250565b7f4f776e61626c653a206e6577206f776e657220697320746865207a65726f206160008201527f6464726573730000000000000000000000000000000000000000000000000000602082015250565b7f4552433732313a207472616e736665722066726f6d20696e636f72726563742060008201527f6f776e6572000000000000000000000000000000000000000000000000000000602082015250565b7f4552433732313a20746f6b656e20616c7265616479206d696e74656400000000600082015250565b7f4552433732313a207472616e7366657220746f20746865207a65726f2061646460008201527f7265737300000000000000000000000000000000000000000000000000000000602082015250565b7f4552433732313a20617070726f766520746f2063616c6c657200000000000000600082015250565b7f4552433732313a206f70657261746f7220717565727920666f72206e6f6e657860008201527f697374656e7420746f6b656e0000000000000000000000000000000000000000602082015250565b7f4552433732313a20617070726f76652063616c6c6572206973206e6f74206f7760008201527f6e6572206e6f7220617070726f76656420666f7220616c6c0000000000000000602082015250565b7f4552433732313a2062616c616e636520717565727920666f7220746865207a6560008201527f726f206164647265737300000000000000000000000000000000000000000000602082015250565b7f4552433732313a206f776e657220717565727920666f72206e6f6e657869737460008201527f656e7420746f6b656e0000000000000000000000000000000000000000000000602082015250565b7f4552433732313a206d696e7420746f20746865207a65726f2061646472657373600082015250565b7f4552433732313a20617070726f76656420717565727920666f72206e6f6e657860008201527f697374656e7420746f6b656e0000000000000000000000000000000000000000602082015250565b7f4f776e61626c653a2063616c6c6572206973206e6f7420746865206f776e6572600082015250565b7f4552433732314d657461646174613a2055524920717565727920666f72206e6f60008201527f6e6578697374656e7420746f6b656e0000000000000000000000000000000000602082015250565b7f4552433732313a20617070726f76616c20746f2063757272656e74206f776e6560008201527f7200000000000000000000000000000000000000000000000000000000000000602082015250565b7f4552433732313a207472616e736665722063616c6c6572206973206e6f74206f60008201527f776e6572206e6f7220617070726f766564000000000000000000000000000000602082015250565b7f455243373231456e756d657261626c653a20676c6f62616c20696e646578206f60008201527f7574206f6620626f756e64730000000000000000000000000000000000000000602082015250565b61321b81612a36565b811461322657600080fd5b50565b61323281612a48565b811461323d57600080fd5b50565b61324981612a54565b811461325457600080fd5b50565b61326081612aa0565b811461326b57600080fd5b5056fea2646970667358221220049dd17302031953e4f5e4b750b885bf12ea3cd314ca8d2b173f7a67a15a432964736f6c63430008040033",
  "linkReferences": {},
  "deployedLinkReferences": {}
}