{
  "_format": "hh-sol-artifact-1",
  "contractName": "FileverseNFT",
  "sourceName": "contracts/FileverseNFT.sol",
  "abi": [
    {
      "inputs": [
        {
          "internalType": "string",
          "name": "_name",
          "type": "string"
        },
        {
          "internalType": "string",
          "name": "_symbol",
          "type": "string"
        }
      ],
      "stateMutability": "nonpayable",
      "type": "constructor"
    },
    {
      "anonymous": false,
      "inputs": [
        {
          "indexed": true,
          "internalType": "address",
          "name": "owner",
          "type": "address"
        },
        {
          "indexed": true,
          "internalType": "address",
          "name": "approved",
          "type": "address"
        },
        {
          "indexed": true,
          "internalType": "uint256",
          "name": "tokenId",
          "type": "uint256"
        }
      ],
      "name": "Approval",
      "type": "event"
    },
    {
      "anonymous": false,
      "inputs": [
        {
          "indexed": true,
          "internalType": "address",
          "name": "owner",
          "type": "address"
        },
        {
          "indexed": true,
          "internalType": "address",
          "name": "operator",
          "type": "address"
        },
        {
          "indexed": false,
          "internalType": "bool",
          "name": "approved",
          "type": "bool"
        }
      ],
      "name": "ApprovalForAll",
      "type": "event"
    },
    {
      "anonymous": false,
      "inputs": [
        {
          "indexed": true,
          "internalType": "address",
          "name": "previousOwner",
          "type": "address"
        },
        {
          "indexed": true,
          "internalType": "address",
          "name": "newOwner",
          "type": "address"
        }
      ],
      "name": "OwnershipTransferred",
      "type": "event"
    },
    {
      "anonymous": false,
      "inputs": [
        {
          "indexed": false,
          "internalType": "address",
          "name": "account",
          "type": "address"
        }
      ],
      "name": "Paused",
      "type": "event"
    },
    {
      "anonymous": false,
      "inputs": [
        {
          "indexed": true,
          "internalType": "address",
          "name": "from",
          "type": "address"
        },
        {
          "indexed": true,
          "internalType": "address",
          "name": "to",
          "type": "address"
        },
        {
          "indexed": true,
          "internalType": "uint256",
          "name": "tokenId",
          "type": "uint256"
        }
      ],
      "name": "Transfer",
      "type": "event"
    },
    {
      "anonymous": false,
      "inputs": [
        {
          "indexed": false,
          "internalType": "address",
          "name": "account",
          "type": "address"
        }
      ],
      "name": "Unpaused",
      "type": "event"
    },
    {
      "inputs": [
        {
          "internalType": "address",
          "name": "to",
          "type": "address"
        },
        {
          "internalType": "uint256",
          "name": "tokenId",
          "type": "uint256"
        }
      ],
      "name": "approve",
      "outputs": [],
      "stateMutability": "nonpayable",
      "type": "function"
    },
    {
      "inputs": [
        {
          "internalType": "address",
          "name": "owner",
          "type": "address"
        }
      ],
      "name": "balanceOf",
      "outputs": [
        {
          "internalType": "uint256",
          "name": "",
          "type": "uint256"
        }
      ],
      "stateMutability": "view",
      "type": "function"
    },
    {
      "inputs": [
        {
          "internalType": "uint256",
          "name": "tokenId",
          "type": "uint256"
        }
      ],
      "name": "getApproved",
      "outputs": [
        {
          "internalType": "address",
          "name": "",
          "type": "address"
        }
      ],
      "stateMutability": "view",
      "type": "function"
    },
    {
      "inputs": [
        {
          "internalType": "address",
          "name": "owner",
          "type": "address"
        },
        {
          "internalType": "address",
          "name": "operator",
          "type": "address"
        }
      ],
      "name": "isApprovedForAll",
      "outputs": [
        {
          "internalType": "bool",
          "name": "",
          "type": "bool"
        }
      ],
      "stateMutability": "view",
      "type": "function"
    },
    {
      "inputs": [
        {
          "internalType": "address",
          "name": "_to",
          "type": "address"
        }
      ],
      "name": "mintTo",
      "outputs": [],
      "stateMutability": "nonpayable",
      "type": "function"
    },
    {
      "inputs": [],
      "name": "name",
      "outputs": [
        {
          "internalType": "string",
          "name": "",
          "type": "string"
        }
      ],
      "stateMutability": "view",
      "type": "function"
    },
    {
      "inputs": [],
      "name": "owner",
      "outputs": [
        {
          "internalType": "address",
          "name": "",
          "type": "address"
        }
      ],
      "stateMutability": "view",
      "type": "function"
    },
    {
      "inputs": [
        {
          "internalType": "uint256",
          "name": "tokenId",
          "type": "uint256"
        }
      ],
      "name": "ownerOf",
      "outputs": [
        {
          "internalType": "address",
          "name": "",
          "type": "address"
        }
      ],
      "stateMutability": "view",
      "type": "function"
    },
    {
      "inputs": [],
      "name": "paused",
      "outputs": [
        {
          "internalType": "bool",
          "name": "",
          "type": "bool"
        }
      ],
      "stateMutability": "view",
      "type": "function"
    },
    {
      "inputs": [],
      "name": "renounceOwnership",
      "outputs": [],
      "stateMutability": "nonpayable",
      "type": "function"
    },
    {
      "inputs": [
        {
          "internalType": "address",
          "name": "from",
          "type": "address"
        },
        {
          "internalType": "address",
          "name": "to",
          "type": "address"
        },
        {
          "internalType": "uint256",
          "name": "tokenId",
          "type": "uint256"
        }
      ],
      "name": "safeTransferFrom",
      "outputs": [],
      "stateMutability": "nonpayable",
      "type": "function"
    },
    {
      "inputs": [
        {
          "internalType": "address",
          "name": "from",
          "type": "address"
        },
        {
          "internalType": "address",
          "name": "to",
          "type": "address"
        },
        {
          "internalType": "uint256",
          "name": "tokenId",
          "type": "uint256"
        },
        {
          "internalType": "bytes",
          "name": "_data",
          "type": "bytes"
        }
      ],
      "name": "safeTransferFrom",
      "outputs": [],
      "stateMutability": "nonpayable",
      "type": "function"
    },
    {
      "inputs": [
        {
          "internalType": "address",
          "name": "operator",
          "type": "address"
        },
        {
          "internalType": "bool",
          "name": "approved",
          "type": "bool"
        }
      ],
      "name": "setApprovalForAll",
      "outputs": [],
      "stateMutability": "nonpayable",
      "type": "function"
    },
    {
      "inputs": [
        {
          "internalType": "bytes4",
          "name": "interfaceId",
          "type": "bytes4"
        }
      ],
      "name": "supportsInterface",
      "outputs": [
        {
          "internalType": "bool",
          "name": "",
          "type": "bool"
        }
      ],
      "stateMutability": "view",
      "type": "function"
    },
    {
      "inputs": [],
      "name": "symbol",
      "outputs": [
        {
          "internalType": "string",
          "name": "",
          "type": "string"
        }
      ],
      "stateMutability": "view",
      "type": "function"
    },
    {
      "inputs": [
        {
          "internalType": "uint256",
          "name": "index",
          "type": "uint256"
        }
      ],
      "name": "tokenByIndex",
      "outputs": [
        {
          "internalType": "uint256",
          "name": "",
          "type": "uint256"
        }
      ],
      "stateMutability": "view",
      "type": "function"
    },
    {
      "inputs": [
        {
          "internalType": "address",
          "name": "owner",
          "type": "address"
        },
        {
          "internalType": "uint256",
          "name": "index",
          "type": "uint256"
        }
      ],
      "name": "tokenOfOwnerByIndex",
      "outputs": [
        {
          "internalType": "uint256",
          "name": "",
          "type": "uint256"
        }
      ],
      "stateMutability": "view",
      "type": "function"
    },
    {
      "inputs": [
        {
          "internalType": "uint256",
          "name": "tokenId",
          "type": "uint256"
        }
      ],
      "name": "tokenURI",
      "outputs": [
        {
          "internalType": "string",
          "name": "",
          "type": "string"
        }
      ],
      "stateMutability": "view",
      "type": "function"
    },
    {
      "inputs": [],
      "name": "totalSupply",
      "outputs": [
        {
          "internalType": "uint256",
          "name": "",
          "type": "uint256"
        }
      ],
      "stateMutability": "view",
      "type": "function"
    },
    {
      "inputs": [
        {
          "internalType": "address",
          "name": "from",
          "type": "address"
        },
        {
          "internalType": "address",
          "name": "to",
          "type": "address"
        },
        {
          "internalType": "uint256",
          "name": "tokenId",
          "type": "uint256"
        }
      ],
      "name": "transferFrom",
      "outputs": [],
      "stateMutability": "nonpayable",
      "type": "function"
    },
    {
      "inputs": [
        {
          "internalType": "address",
          "name": "newOwner",
          "type": "address"
        }
      ],
      "name": "transferOwnership",
      "outputs": [],
      "stateMutability": "nonpayable",
      "type": "function"
    }
  ],
  "bytecode": "0x60806040526000600b553480156200001657600080fd5b50604051620034bb380380620034bb83398181016040528101906200003c9190620002a5565b818181600090805190602001906200005692919062000183565b5080600190805190602001906200006f92919062000183565b5050506200009262000086620000b560201b60201c565b620000bd60201b60201c565b6000600660146101000a81548160ff021916908315150217905550505062000488565b600033905090565b6000600660009054906101000a900473ffffffffffffffffffffffffffffffffffffffff16905081600660006101000a81548173ffffffffffffffffffffffffffffffffffffffff021916908373ffffffffffffffffffffffffffffffffffffffff1602179055508173ffffffffffffffffffffffffffffffffffffffff168173ffffffffffffffffffffffffffffffffffffffff167f8be0079c531659141344cd1fd0a4f28419497f9722a3daafe3b4186f6b6457e060405160405180910390a35050565b8280546200019190620003ad565b90600052602060002090601f016020900481019282620001b5576000855562000201565b82601f10620001d057805160ff191683800117855562000201565b8280016001018555821562000201579182015b8281111562000200578251825591602001919060010190620001e3565b5b50905062000210919062000214565b5090565b5b808211156200022f57600081600090555060010162000215565b5090565b60006200024a620002448462000341565b62000318565b9050828152602081018484840111156200026357600080fd5b6200027084828562000377565b509392505050565b600082601f8301126200028a57600080fd5b81516200029c84826020860162000233565b91505092915050565b60008060408385031215620002b957600080fd5b600083015167ffffffffffffffff811115620002d457600080fd5b620002e28582860162000278565b925050602083015167ffffffffffffffff8111156200030057600080fd5b6200030e8582860162000278565b9150509250929050565b60006200032462000337565b9050620003328282620003e3565b919050565b6000604051905090565b600067ffffffffffffffff8211156200035f576200035e62000448565b5b6200036a8262000477565b9050602081019050919050565b60005b83811015620003975780820151818401526020810190506200037a565b83811115620003a7576000848401525b50505050565b60006002820490506001821680620003c657607f821691505b60208210811415620003dd57620003dc62000419565b5b50919050565b620003ee8262000477565b810181811067ffffffffffffffff8211171562000410576200040f62000448565b5b80604052505050565b7f4e487b7100000000000000000000000000000000000000000000000000000000600052602260045260246000fd5b7f4e487b7100000000000000000000000000000000000000000000000000000000600052604160045260246000fd5b6000601f19601f8301169050919050565b61302380620004986000396000f3fe608060405234801561001057600080fd5b50600436106101375760003560e01c80636352211e116100b857806395d89b411161007c57806395d89b411461034e578063a22cb4651461036c578063b88d4fde14610388578063c87b56dd146103a4578063e985e9c5146103d4578063f2fde38b1461040457610137565b80636352211e146102aa57806370a08231146102da578063715018a61461030a578063755edd17146103145780638da5cb5b1461033057610137565b806323b872dd116100ff57806323b872dd146101f45780632f745c591461021057806342842e0e146102405780634f6ccce71461025c5780635c975abb1461028c57610137565b806301ffc9a71461013c57806306fdde031461016c578063081812fc1461018a578063095ea7b3146101ba57806318160ddd146101d6575b600080fd5b61015660048036038101906101519190611f71565b610420565b60405161016391906123e0565b60405180910390f35b610174610432565b60405161018191906123fb565b60405180910390f35b6101a4600480360381019061019f9190611fc3565b6104c4565b6040516101b19190612379565b60405180910390f35b6101d460048036038101906101cf9190611f35565b610549565b005b6101de610661565b6040516101eb919061267d565b60405180910390f35b61020e60048036038101906102099190611e2f565b61066e565b005b61022a60048036038101906102259190611f35565b6106ce565b604051610237919061267d565b60405180910390f35b61025a60048036038101906102559190611e2f565b610773565b005b61027660048036038101906102719190611fc3565b610793565b604051610283919061267d565b60405180910390f35b61029461082a565b6040516102a191906123e0565b60405180910390f35b6102c460048036038101906102bf9190611fc3565b610841565b6040516102d19190612379565b60405180910390f35b6102f460048036038101906102ef9190611dca565b6108f3565b604051610301919061267d565b60405180910390f35b6103126109ab565b005b61032e60048036038101906103299190611dca565b610a33565b005b610338610ad1565b6040516103459190612379565b60405180910390f35b610356610afb565b60405161036391906123fb565b60405180910390f35b61038660048036038101906103819190611ef9565b610b8d565b005b6103a2600480360381019061039d9190611e7e565b610ba3565b005b6103be60048036038101906103b99190611fc3565b610c05565b6040516103cb91906123fb565b60405180910390f35b6103ee60048036038101906103e99190611df3565b610cac565b6040516103fb91906123e0565b60405180910390f35b61041e60048036038101906104199190611dca565b610d40565b005b600061042b82610e38565b9050919050565b606060008054610441906128a2565b80601f016020809104026020016040519081016040528092919081815260200182805461046d906128a2565b80156104ba5780601f1061048f576101008083540402835291602001916104ba565b820191906000526020600020905b81548152906001019060200180831161049d57829003601f168201915b5050505050905090565b60006104cf82610eb2565b61050e576040517f08c379a0000000000000000000000000000000000000000000000000000000008152600401610505906125bd565b60405180910390fd5b6004600083815260200190815260200160002060009054906101000a900473ffffffffffffffffffffffffffffffffffffffff169050919050565b600061055482610841565b90508073ffffffffffffffffffffffffffffffffffffffff168373ffffffffffffffffffffffffffffffffffffffff1614156105c5576040517f08c379a00000000000000000000000000000000000000000000000000000000081526004016105bc9061261d565b60405180910390fd5b8073ffffffffffffffffffffffffffffffffffffffff166105e4610f1e565b73ffffffffffffffffffffffffffffffffffffffff16148061061357506106128161060d610f1e565b610cac565b5b610652576040517f08c379a00000000000000000000000000000000000000000000000000000000081526004016106499061253d565b60405180910390fd5b61065c8383610f26565b505050565b6000600980549050905090565b61067f610679610f1e565b82610fdf565b6106be576040517f08c379a00000000000000000000000000000000000000000000000000000000081526004016106b59061263d565b60405180910390fd5b6106c98383836110bd565b505050565b60006106d9836108f3565b821061071a576040517f08c379a00000000000000000000000000000000000000000000000000000000081526004016107119061243d565b60405180910390fd5b600760008473ffffffffffffffffffffffffffffffffffffffff1673ffffffffffffffffffffffffffffffffffffffff168152602001908152602001600020600083815260200190815260200160002054905092915050565b61078e83838360405180602001604052806000815250610ba3565b505050565b600061079d610661565b82106107de576040517f08c379a00000000000000000000000000000000000000000000000000000000081526004016107d59061265d565b60405180910390fd5b60098281548110610818577f4e487b7100000000000000000000000000000000000000000000000000000000600052603260045260246000fd5b90600052602060002001549050919050565b6000600660149054906101000a900460ff16905090565b6000806002600084815260200190815260200160002060009054906101000a900473ffffffffffffffffffffffffffffffffffffffff169050600073ffffffffffffffffffffffffffffffffffffffff168173ffffffffffffffffffffffffffffffffffffffff1614156108ea576040517f08c379a00000000000000000000000000000000000000000000000000000000081526004016108e19061257d565b60405180910390fd5b80915050919050565b60008073ffffffffffffffffffffffffffffffffffffffff168273ffffffffffffffffffffffffffffffffffffffff161415610964576040517f08c379a000000000000000000000000000000000000000000000000000000000815260040161095b9061255d565b60405180910390fd5b600360008373ffffffffffffffffffffffffffffffffffffffff1673ffffffffffffffffffffffffffffffffffffffff168152602001908152602001600020549050919050565b6109b3610f1e565b73ffffffffffffffffffffffffffffffffffffffff166109d1610ad1565b73ffffffffffffffffffffffffffffffffffffffff1614610a27576040517f08c379a0000000000000000000000000000000000000000000000000000000008152600401610a1e906125dd565b60405180910390fd5b610a316000611324565b565b610a3b610f1e565b73ffffffffffffffffffffffffffffffffffffffff16610a59610ad1565b73ffffffffffffffffffffffffffffffffffffffff1614610aaf576040517f08c379a0000000000000000000000000000000000000000000000000000000008152600401610aa6906125dd565b60405180910390fd5b6000610ab96113ea565b9050610ac58282611400565b610acd6115da565b5050565b6000600660009054906101000a900473ffffffffffffffffffffffffffffffffffffffff16905090565b606060018054610b0a906128a2565b80601f0160208091040260200160405190810160405280929190818152602001828054610b36906128a2565b8015610b835780601f10610b5857610100808354040283529160200191610b83565b820191906000526020600020905b815481529060010190602001808311610b6657829003601f168201915b5050505050905090565b610b9f610b98610f1e565b83836115f4565b5050565b610bb4610bae610f1e565b83610fdf565b610bf3576040517f08c379a0000000000000000000000000000000000000000000000000000000008152600401610bea9061263d565b60405180910390fd5b610bff84848484611761565b50505050565b6060610c1082610eb2565b610c4f576040517f08c379a0000000000000000000000000000000000000000000000000000000008152600401610c46906125fd565b60405180910390fd5b6000610c596117bd565b90506000815111610c795760405180602001604052806000815250610ca4565b80610c83846117d4565b604051602001610c94929190612355565b6040516020818303038152906040525b915050919050565b6000600560008473ffffffffffffffffffffffffffffffffffffffff1673ffffffffffffffffffffffffffffffffffffffff16815260200190815260200160002060008373ffffffffffffffffffffffffffffffffffffffff1673ffffffffffffffffffffffffffffffffffffffff16815260200190815260200160002060009054906101000a900460ff16905092915050565b610d48610f1e565b73ffffffffffffffffffffffffffffffffffffffff16610d66610ad1565b73ffffffffffffffffffffffffffffffffffffffff1614610dbc576040517f08c379a0000000000000000000000000000000000000000000000000000000008152600401610db3906125dd565b60405180910390fd5b600073ffffffffffffffffffffffffffffffffffffffff168173ffffffffffffffffffffffffffffffffffffffff161415610e2c576040517f08c379a0000000000000000000000000000000000000000000000000000000008152600401610e239061247d565b60405180910390fd5b610e3581611324565b50565b60007f780e9d63000000000000000000000000000000000000000000000000000000007bffffffffffffffffffffffffffffffffffffffffffffffffffffffff1916827bffffffffffffffffffffffffffffffffffffffffffffffffffffffff19161480610eab5750610eaa82611981565b5b9050919050565b60008073ffffffffffffffffffffffffffffffffffffffff166002600084815260200190815260200160002060009054906101000a900473ffffffffffffffffffffffffffffffffffffffff1673ffffffffffffffffffffffffffffffffffffffff1614159050919050565b600033905090565b816004600083815260200190815260200160002060006101000a81548173ffffffffffffffffffffffffffffffffffffffff021916908373ffffffffffffffffffffffffffffffffffffffff160217905550808273ffffffffffffffffffffffffffffffffffffffff16610f9983610841565b73ffffffffffffffffffffffffffffffffffffffff167f8c5be1e5ebec7d5bd14f71427d1e84f3dd0314c0f7b2291e5b200ac8c7c3b92560405160405180910390a45050565b6000610fea82610eb2565b611029576040517f08c379a00000000000000000000000000000000000000000000000000000000081526004016110209061251d565b60405180910390fd5b600061103483610841565b90508073ffffffffffffffffffffffffffffffffffffffff168473ffffffffffffffffffffffffffffffffffffffff1614806110a357508373ffffffffffffffffffffffffffffffffffffffff1661108b846104c4565b73ffffffffffffffffffffffffffffffffffffffff16145b806110b457506110b38185610cac565b5b91505092915050565b8273ffffffffffffffffffffffffffffffffffffffff166110dd82610841565b73ffffffffffffffffffffffffffffffffffffffff1614611133576040517f08c379a000000000000000000000000000000000000000000000000000000000815260040161112a9061249d565b60405180910390fd5b600073ffffffffffffffffffffffffffffffffffffffff168273ffffffffffffffffffffffffffffffffffffffff1614156111a3576040517f08c379a000000000000000000000000000000000000000000000000000000000815260040161119a906124dd565b60405180910390fd5b6111ae838383611a63565b6111b9600082610f26565b6001600360008573ffffffffffffffffffffffffffffffffffffffff1673ffffffffffffffffffffffffffffffffffffffff168152602001908152602001600020600082825461120991906127b8565b925050819055506001600360008473ffffffffffffffffffffffffffffffffffffffff1673ffffffffffffffffffffffffffffffffffffffff16815260200190815260200160002060008282546112609190612731565b92505081905550816002600083815260200190815260200160002060006101000a81548173ffffffffffffffffffffffffffffffffffffffff021916908373ffffffffffffffffffffffffffffffffffffffff160217905550808273ffffffffffffffffffffffffffffffffffffffff168473ffffffffffffffffffffffffffffffffffffffff167fddf252ad1be2c89b69c2b068fc378daa952ba7f163c4a11628f55a4df523b3ef60405160405180910390a461131f838383611a73565b505050565b6000600660009054906101000a900473ffffffffffffffffffffffffffffffffffffffff16905081600660006101000a81548173ffffffffffffffffffffffffffffffffffffffff021916908373ffffffffffffffffffffffffffffffffffffffff1602179055508173ffffffffffffffffffffffffffffffffffffffff168173ffffffffffffffffffffffffffffffffffffffff167f8be0079c531659141344cd1fd0a4f28419497f9722a3daafe3b4186f6b6457e060405160405180910390a35050565b60006001600b546113fb9190612731565b905090565b600073ffffffffffffffffffffffffffffffffffffffff168273ffffffffffffffffffffffffffffffffffffffff161415611470576040517f08c379a00000000000000000000000000000000000000000000000000000000081526004016114679061259d565b60405180910390fd5b61147981610eb2565b156114b9576040517f08c379a00000000000000000000000000000000000000000000000000000000081526004016114b0906124bd565b60405180910390fd5b6114c560008383611a63565b6001600360008473ffffffffffffffffffffffffffffffffffffffff1673ffffffffffffffffffffffffffffffffffffffff16815260200190815260200160002060008282546115159190612731565b92505081905550816002600083815260200190815260200160002060006101000a81548173ffffffffffffffffffffffffffffffffffffffff021916908373ffffffffffffffffffffffffffffffffffffffff160217905550808273ffffffffffffffffffffffffffffffffffffffff16600073ffffffffffffffffffffffffffffffffffffffff167fddf252ad1be2c89b69c2b068fc378daa952ba7f163c4a11628f55a4df523b3ef60405160405180910390a46115d660008383611a73565b5050565b600b60008154809291906115ed90612905565b9190505550565b8173ffffffffffffffffffffffffffffffffffffffff168373ffffffffffffffffffffffffffffffffffffffff161415611663576040517f08c379a000000000000000000000000000000000000000000000000000000000815260040161165a906124fd565b60405180910390fd5b80600560008573ffffffffffffffffffffffffffffffffffffffff1673ffffffffffffffffffffffffffffffffffffffff16815260200190815260200160002060008473ffffffffffffffffffffffffffffffffffffffff1673ffffffffffffffffffffffffffffffffffffffff16815260200190815260200160002060006101000a81548160ff0219169083151502179055508173ffffffffffffffffffffffffffffffffffffffff168373ffffffffffffffffffffffffffffffffffffffff167f17307eab39ab6107e8899845ad3d59bd9653f200f220920489ca2b5937696c318360405161175491906123e0565b60405180910390a3505050565b61176c8484846110bd565b61177884848484611a78565b6117b7576040517f08c379a00000000000000000000000000000000000000000000000000000000081526004016117ae9061245d565b60405180910390fd5b50505050565b606060405180602001604052806000815250905090565b6060600082141561181c576040518060400160405280600181526020017f3000000000000000000000000000000000000000000000000000000000000000815250905061197c565b600082905060005b6000821461184e57808061183790612905565b915050600a826118479190612787565b9150611824565b60008167ffffffffffffffff811115611890577f4e487b7100000000000000000000000000000000000000000000000000000000600052604160045260246000fd5b6040519080825280601f01601f1916602001820160405280156118c25781602001600182028036833780820191505090505b5090505b60008514611975576001826118db91906127b8565b9150600a856118ea919061294e565b60306118f69190612731565b60f81b818381518110611932577f4e487b7100000000000000000000000000000000000000000000000000000000600052603260045260246000fd5b60200101907effffffffffffffffffffffffffffffffffffffffffffffffffffffffffffff1916908160001a905350600a8561196e9190612787565b94506118c6565b8093505050505b919050565b60007f80ac58cd000000000000000000000000000000000000000000000000000000007bffffffffffffffffffffffffffffffffffffffffffffffffffffffff1916827bffffffffffffffffffffffffffffffffffffffffffffffffffffffff19161480611a4c57507f5b5e139f000000000000000000000000000000000000000000000000000000007bffffffffffffffffffffffffffffffffffffffffffffffffffffffff1916827bffffffffffffffffffffffffffffffffffffffffffffffffffffffff1916145b80611a5c5750611a5b82611c0f565b5b9050919050565b611a6e838383611c79565b505050565b505050565b6000611a998473ffffffffffffffffffffffffffffffffffffffff16611cd1565b15611c02578373ffffffffffffffffffffffffffffffffffffffff1663150b7a02611ac2610f1e565b8786866040518563ffffffff1660e01b8152600401611ae49493929190612394565b602060405180830381600087803b158015611afe57600080fd5b505af1925050508015611b2f57506040513d601f19601f82011682018060405250810190611b2c9190611f9a565b60015b611bb2573d8060008114611b5f576040519150601f19603f3d011682016040523d82523d6000602084013e611b64565b606091505b50600081511415611baa576040517f08c379a0000000000000000000000000000000000000000000000000000000008152600401611ba19061245d565b60405180910390fd5b805181602001fd5b63150b7a0260e01b7bffffffffffffffffffffffffffffffffffffffffffffffffffffffff1916817bffffffffffffffffffffffffffffffffffffffffffffffffffffffff191614915050611c07565b600190505b949350505050565b60007f01ffc9a7000000000000000000000000000000000000000000000000000000007bffffffffffffffffffffffffffffffffffffffffffffffffffffffff1916827bffffffffffffffffffffffffffffffffffffffffffffffffffffffff1916149050919050565b611c84838383611cf4565b611c8c61082a565b15611ccc576040517f08c379a0000000000000000000000000000000000000000000000000000000008152600401611cc39061241d565b60405180910390fd5b505050565b6000808273ffffffffffffffffffffffffffffffffffffffff163b119050919050565b505050565b6000611d0c611d07846126bd565b612698565b905082815260208101848484011115611d2457600080fd5b611d2f848285612860565b509392505050565b600081359050611d4681612f91565b92915050565b600081359050611d5b81612fa8565b92915050565b600081359050611d7081612fbf565b92915050565b600081519050611d8581612fbf565b92915050565b600082601f830112611d9c57600080fd5b8135611dac848260208601611cf9565b91505092915050565b600081359050611dc481612fd6565b92915050565b600060208284031215611ddc57600080fd5b6000611dea84828501611d37565b91505092915050565b60008060408385031215611e0657600080fd5b6000611e1485828601611d37565b9250506020611e2585828601611d37565b9150509250929050565b600080600060608486031215611e4457600080fd5b6000611e5286828701611d37565b9350506020611e6386828701611d37565b9250506040611e7486828701611db5565b9150509250925092565b60008060008060808587031215611e9457600080fd5b6000611ea287828801611d37565b9450506020611eb387828801611d37565b9350506040611ec487828801611db5565b925050606085013567ffffffffffffffff811115611ee157600080fd5b611eed87828801611d8b565b91505092959194509250565b60008060408385031215611f0c57600080fd5b6000611f1a85828601611d37565b9250506020611f2b85828601611d4c565b9150509250929050565b60008060408385031215611f4857600080fd5b6000611f5685828601611d37565b9250506020611f6785828601611db5565b9150509250929050565b600060208284031215611f8357600080fd5b6000611f9184828501611d61565b91505092915050565b600060208284031215611fac57600080fd5b6000611fba84828501611d76565b91505092915050565b600060208284031215611fd557600080fd5b6000611fe384828501611db5565b91505092915050565b611ff5816127ec565b82525050565b612004816127fe565b82525050565b6000612015826126ee565b61201f8185612704565b935061202f81856020860161286f565b61203881612a3b565b840191505092915050565b600061204e826126f9565b6120588185612715565b935061206881856020860161286f565b61207181612a3b565b840191505092915050565b6000612087826126f9565b6120918185612726565b93506120a181856020860161286f565b80840191505092915050565b60006120ba602b83612715565b91506120c582612a4c565b604082019050919050565b60006120dd602b83612715565b91506120e882612a9b565b604082019050919050565b6000612100603283612715565b915061210b82612aea565b604082019050919050565b6000612123602683612715565b915061212e82612b39565b604082019050919050565b6000612146602583612715565b915061215182612b88565b604082019050919050565b6000612169601c83612715565b915061217482612bd7565b602082019050919050565b600061218c602483612715565b915061219782612c00565b604082019050919050565b60006121af601983612715565b91506121ba82612c4f565b602082019050919050565b60006121d2602c83612715565b91506121dd82612c78565b604082019050919050565b60006121f5603883612715565b915061220082612cc7565b604082019050919050565b6000612218602a83612715565b915061222382612d16565b604082019050919050565b600061223b602983612715565b915061224682612d65565b604082019050919050565b600061225e602083612715565b915061226982612db4565b602082019050919050565b6000612281602c83612715565b915061228c82612ddd565b604082019050919050565b60006122a4602083612715565b91506122af82612e2c565b602082019050919050565b60006122c7602f83612715565b91506122d282612e55565b604082019050919050565b60006122ea602183612715565b91506122f582612ea4565b604082019050919050565b600061230d603183612715565b915061231882612ef3565b604082019050919050565b6000612330602c83612715565b915061233b82612f42565b604082019050919050565b61234f81612856565b82525050565b6000612361828561207c565b915061236d828461207c565b91508190509392505050565b600060208201905061238e6000830184611fec565b92915050565b60006080820190506123a96000830187611fec565b6123b66020830186611fec565b6123c36040830185612346565b81810360608301526123d5818461200a565b905095945050505050565b60006020820190506123f56000830184611ffb565b92915050565b600060208201905081810360008301526124158184612043565b905092915050565b60006020820190508181036000830152612436816120ad565b9050919050565b60006020820190508181036000830152612456816120d0565b9050919050565b60006020820190508181036000830152612476816120f3565b9050919050565b6000602082019050818103600083015261249681612116565b9050919050565b600060208201905081810360008301526124b681612139565b9050919050565b600060208201905081810360008301526124d68161215c565b9050919050565b600060208201905081810360008301526124f68161217f565b9050919050565b60006020820190508181036000830152612516816121a2565b9050919050565b60006020820190508181036000830152612536816121c5565b9050919050565b60006020820190508181036000830152612556816121e8565b9050919050565b600060208201905081810360008301526125768161220b565b9050919050565b600060208201905081810360008301526125968161222e565b9050919050565b600060208201905081810360008301526125b681612251565b9050919050565b600060208201905081810360008301526125d681612274565b9050919050565b600060208201905081810360008301526125f681612297565b9050919050565b60006020820190508181036000830152612616816122ba565b9050919050565b60006020820190508181036000830152612636816122dd565b9050919050565b6000602082019050818103600083015261265681612300565b9050919050565b6000602082019050818103600083015261267681612323565b9050919050565b60006020820190506126926000830184612346565b92915050565b60006126a26126b3565b90506126ae82826128d4565b919050565b6000604051905090565b600067ffffffffffffffff8211156126d8576126d7612a0c565b5b6126e182612a3b565b9050602081019050919050565b600081519050919050565b600081519050919050565b600082825260208201905092915050565b600082825260208201905092915050565b600081905092915050565b600061273c82612856565b915061274783612856565b9250827fffffffffffffffffffffffffffffffffffffffffffffffffffffffffffffffff0382111561277c5761277b61297f565b5b828201905092915050565b600061279282612856565b915061279d83612856565b9250826127ad576127ac6129ae565b5b828204905092915050565b60006127c382612856565b91506127ce83612856565b9250828210156127e1576127e061297f565b5b828203905092915050565b60006127f782612836565b9050919050565b60008115159050919050565b60007fffffffff0000000000000000000000000000000000000000000000000000000082169050919050565b600073ffffffffffffffffffffffffffffffffffffffff82169050919050565b6000819050919050565b82818337600083830152505050565b60005b8381101561288d578082015181840152602081019050612872565b8381111561289c576000848401525b50505050565b600060028204905060018216806128ba57607f821691505b602082108114156128ce576128cd6129dd565b5b50919050565b6128dd82612a3b565b810181811067ffffffffffffffff821117156128fc576128fb612a0c565b5b80604052505050565b600061291082612856565b91507fffffffffffffffffffffffffffffffffffffffffffffffffffffffffffffffff8214156129435761294261297f565b5b600182019050919050565b600061295982612856565b915061296483612856565b925082612974576129736129ae565b5b828206905092915050565b7f4e487b7100000000000000000000000000000000000000000000000000000000600052601160045260246000fd5b7f4e487b7100000000000000000000000000000000000000000000000000000000600052601260045260246000fd5b7f4e487b7100000000000000000000000000000000000000000000000000000000600052602260045260246000fd5b7f4e487b7100000000000000000000000000000000000000000000000000000000600052604160045260246000fd5b6000601f19601f8301169050919050565b7f4552433732315061757361626c653a20746f6b656e207472616e73666572207760008201527f68696c6520706175736564000000000000000000000000000000000000000000602082015250565b7f455243373231456e756d657261626c653a206f776e657220696e646578206f7560008201527f74206f6620626f756e6473000000000000000000000000000000000000000000602082015250565b7f4552433732313a207472616e7366657220746f206e6f6e20455243373231526560008201527f63656976657220696d706c656d656e7465720000000000000000000000000000602082015250565b7f4f776e61626c653a206e6577206f776e657220697320746865207a65726f206160008201527f6464726573730000000000000000000000000000000000000000000000000000602082015250565b7f4552433732313a207472616e736665722066726f6d20696e636f72726563742060008201527f6f776e6572000000000000000000000000000000000000000000000000000000602082015250565b7f4552433732313a20746f6b656e20616c7265616479206d696e74656400000000600082015250565b7f4552433732313a207472616e7366657220746f20746865207a65726f2061646460008201527f7265737300000000000000000000000000000000000000000000000000000000602082015250565b7f4552433732313a20617070726f766520746f2063616c6c657200000000000000600082015250565b7f4552433732313a206f70657261746f7220717565727920666f72206e6f6e657860008201527f697374656e7420746f6b656e0000000000000000000000000000000000000000602082015250565b7f4552433732313a20617070726f76652063616c6c6572206973206e6f74206f7760008201527f6e6572206e6f7220617070726f76656420666f7220616c6c0000000000000000602082015250565b7f4552433732313a2062616c616e636520717565727920666f7220746865207a6560008201527f726f206164647265737300000000000000000000000000000000000000000000602082015250565b7f4552433732313a206f776e657220717565727920666f72206e6f6e657869737460008201527f656e7420746f6b656e0000000000000000000000000000000000000000000000602082015250565b7f4552433732313a206d696e7420746f20746865207a65726f2061646472657373600082015250565b7f4552433732313a20617070726f76656420717565727920666f72206e6f6e657860008201527f697374656e7420746f6b656e0000000000000000000000000000000000000000602082015250565b7f4f776e61626c653a2063616c6c6572206973206e6f7420746865206f776e6572600082015250565b7f4552433732314d657461646174613a2055524920717565727920666f72206e6f60008201527f6e6578697374656e7420746f6b656e0000000000000000000000000000000000602082015250565b7f4552433732313a20617070726f76616c20746f2063757272656e74206f776e6560008201527f7200000000000000000000000000000000000000000000000000000000000000602082015250565b7f4552433732313a207472616e736665722063616c6c6572206973206e6f74206f60008201527f776e6572206e6f7220617070726f766564000000000000000000000000000000602082015250565b7f455243373231456e756d657261626c653a20676c6f62616c20696e646578206f60008201527f7574206f6620626f756e64730000000000000000000000000000000000000000602082015250565b612f9a816127ec565b8114612fa557600080fd5b50565b612fb1816127fe565b8114612fbc57600080fd5b50565b612fc88161280a565b8114612fd357600080fd5b50565b612fdf81612856565b8114612fea57600080fd5b5056fea2646970667358221220d8b3b3ee98ce2bdc51c734723f80feb19d9730965bb5a64f88bc02da3ff3e35a64736f6c63430008040033",
  "linkReferences": {},
  "deployedLinkReferences": {}
}